:020000040000FA
:100000000815002089010000910100009301000003
:1000100000000000000000000000000000000000E0
:10002000000000000000000000000000950100003A
:10003000000000000000000097010000990100008E
:10004000010A00008D050000D505000031090000FF
:10005000510900005B09000065090000B1040000BF
:100060009B0100009B0100009B0100009B01000020
:100070009B0100009B0100009B0100009B01000010
:100080009B0100009B0100009B0100009B01000000
:100090009B0100009B0100009B0100009B010000F0
:1000A0009B0100009B0100009B0100009B010000E0
:1000B0009B0100009B0100009B0100009B010000D0
:1000C00000F002F800F050F80CA030C808382418EE
:1000D0002D18671EA246AB4654465D46AC4201D180
:1000E00000F042F87E460F3EB6460FCC0126334262
:1000F00000D0FB1A3343A246AB461847C82600007F
:10010000E8260000103A02D378C878C1FAD852071E
:1001100001D330C830C101D504680C6070470000BD
:100120000023002400250026103A01D378C1FBD813
:10013000520700D330C100D50B60704710B5692954
:1001400002D101F0B3FF10BD782902D101F0E4FF24
:1001500010BD732902D102F0B7F810BD002010BD08
:100160001FB51FBD10B510BD02F0CAF81146FFF74C
:10017000F7FF00F063F802F0E2F803B4FFF7F2FFD4
:1001800003BC02F0E5F80000074880470748004735
:10019000FEE7FEE7FEE7FEE7FEE7FEE70448054967
:1001A000054A064B70470000D1010000C100000065
:1001B0000805002008150020081100200811002063
:1001C00001480249016070470000002080F0FA02F7
:1001D00001480249016070470000002080F0FA02E7
:1001E00080B50146014801F043FE80BD000010408B
:1001F00010B50178002908D0441CC8B2FFF7F0FF01
:10020000601C217800290446F7D110BD80B5054A4D
:100210001268002A00D0904703480068002800D0E8
:10022000FEE780BDFC040020B40000200149086006
:100230007047C046FC04002070470000CCB058480E
:100240000590584804900020C0430390029000F0AD
:100250008FFB00F00DF900F035F9002802D052A014
:10026000FFF7C6FF0024204600F00AF9012000F045
:1002700007F9022000F004F900F070F900F0B8FB73
:1002800000F008F900F00CF9054600F003FA002828
:1002900002D050A0FFF7ACFF00F01CFA5B480068EA
:1002A0000B900B980B990F220B9E16400002070F24
:1002B0000804020D5648824205D0564882420AD1AF
:1002C00006A8312101E006A8332101815248079098
:1002D0005248069003E006A851A101F073FE009772
:1002E0000CAF524906AA3846334601F06BFE504E19
:1002F0003046FFF77DFF3846FFF77AFF4DA0FFF746
:1003000077FF002D01D04F4800E04D48FFF770FF08
:100310004D48FFF76DFF4DA0FFF76AFF3046FFF72E
:1003200067FF032040074D490A590251241D202C24
:10033000FAD10022134602E0121D202A05D08C5863
:100340008558A542F8D05B1CF6E7002B01D0454844
:1003500000E04348FFF74CFF00F0C6F904A8082569
:1003600000242946224600F0F5F902A82946224633
:1003700000F02EFA204602E0641C082C07D004A9E5
:10038000095D02AA125D8A42F6D0401CF4E70028FB
:1003900001D0364800E03448FFF72AFFFEE7C046A8
:1003A00089ABCDEF012345674572726F72202D2016
:1003B00058696C696E78204750494F206661696CB6
:1003C000656420746F20696E697469616C69736516
:1003D0000A0000004572726F72202D2058696C6906
:1003E0006E782053504920636F6E74726F6C6C6529
:1003F0007273206661696C656420746F20696E6930
:100400007469616C6973650A0000000000ED00E02A
:10041000230C0000210C000065782D4D436F727491
:10042000556E6B6E6F776E2025780000A823000054
:10043000C92300005445535420594F4F0D0A000062
:100440006F2400008D2400003A240000566572736A
:10045000696F6E20312E310D0A00000088230000E4
:10046000CB24000017240000AF240000F02300007C
:100470000020C043014908607047C04680E200E0A8
:100480001F21014001208840014908607047C04693
:1004900000E100E0014880210160704780E100E058
:1004A000024800680006C00F7047C04600E200E046
:1004B00080B500F003F8FFF7EDFF80BD44488021D0
:1004C00001607047F0B581B020480024214600F05B
:1004D00013FD002801D0012534E01D4801252946DF
:1004E00000F00AFD00282DD11A48022100F004FD79
:1004F000002827D1E7433A460F3A144801263146EF
:1005000000F0ACFA0225114829463A4600F0A6FA56
:100510000F48114A314600F0A1FA0D4829463A46E3
:1005200000F09CFA0B483146224600F097FA084842
:100530003146224600F036FB04483146224600F0A0
:1005400031FB2546284601B0F0BDC0462C010020F5
:100550003C0100201C01002000F0FFFF70B5094C99
:1005600002252046294600F0ADFB074E30462946BD
:1005700000F0A8FB204600F045FB304600F042FBAF
:1005800070BDC0463C0100202C010020B0B582B0F7
:100590000A4C0221204600F0CFFA0190019A012571
:1005A0002046294600F0FEFA0321204600F0F8FB21
:1005B000284600F005F802B0B0BDC0462C0100206E
:1005C0001F21014001208840014908607047C04652
:1005D00080E200E0B0B582B01F48022100F0ACFA22
:1005E00000282FD01C4D0221284600F0A5FA0190CA
:1005F00001242846214600F09FFA00900198C00788
:100600000DD1019880070CD407218801019A520767
:100610000AD4019A490204464034084605E00720FE
:1006200003E00824382000E040240099009A824327
:1006300001400919014011430091009A0648012127
:1006400000F0B0FA0448032100F0AAFB0220FFF7F3
:10065000B7FF02B0B0BDC0463C01002080B50246E5
:100660000248012100F09EFA80BDC0461C01002016
:1006700010B582B0064C0221204600F05DFA0190D0
:100680000198421C0121204600F08CFA02B010BDF6
:100690002C010020B0B50D4D00242846214601F064
:1006A00013F9002801D00120B0BD284600F0F4FC69
:1006B000284600F021FDA8691C30214600F008F80A
:1006C0000121284600F034FF2046B0BD4C01002037
:1006D0000160704780B5034880691C300021FFF736
:1006E000F7FF80BD4C010020F0B581B01449886946
:1006F0000C46603000F02CF804210143A069603002
:10070000FFF7E6FF0F4D06242C70002601270C484A
:10071000294632463B4600F09FFD2C7008480446AF
:10072000294632463B4600F097FD07482880074A95
:1007300002232046294600F08FFD01B0F0BDC046DF
:100740004C010020A802002005FF0000A8010020A5
:1007500000687047F0B581B016460C4605461A4F42
:10076000B8696030FFF7F4FF04210143B8696030D5
:10077000FFF7AEFF601EFB2802D9012001B0F0BDDB
:10078000124F06203870104800220123394600F02D
:1007900063FDFE70300AB870300C7870022038703B
:1007A000002C08D0381D21462A780270401C491EB2
:1007B0006D1C0029F8D1231D03480449002200F0D4
:1007C0004BFD01B0F0BDC0464C010020A802002046
:1007D000F0B581B016460C460546194FB869603031
:1007E000FFF7B6FF04210143B8696030FFF770FFDF
:1007F000601EFB2802D9012001B0F0BD1148C6706F
:1008000003210170310A8170310C4170002C03D03A
:10081000001D214601F0CAFC231D094809490A4E62
:10082000324600F019FD002C07D0311D0A782A70DD
:10083000491C641E6D1C002CF8D101B0F0BDC046EF
:100840004C010020A8020020A8010020F0B595B0BE
:100850000E4603902D202E4C235CDD08009505AF3D
:100860002CA13846324601F0ADFB3846FFF7C0FCFC
:10087000A0696030FFF76CFF01460420019001433E
:10088000A0696030FFF724FF0296002E19D00026E1
:1008900004961F4F03E076190298864213D2B86976
:1008A0006430FFF755FF0007F5D4039C2178B86941
:1008B0006830FFF70DFF0498401904906419039401
:1008C000E9E700200490124CA06970300021FFF786
:1008D000FFFEA0696030FFF73BFF8121490088439C
:1008E000811CA0696030FFF7F3FEA0692030FFF79C
:1008F0002FFF4007F9D5A66920363046FFF728FFBD
:10090000019901433046FFF7E3FE049815B0F0BDAE
:100910004C0100206C656E2025692C2057696420ED
:1009200025692C20696E63722025690D0A0000007C
:1009300080B5032000F002F880BDC0461F210140B1
:1009400001208840014908607047C04680E200E00D
:1009500080B50420FFF7F2FF80BD80B50520FFF7CA
:10096000EDFF80BD80B50620FFF7E8FF80BD0000E9
:10097000B0B50E480024214601F0A6FA002801D0A7
:100980000120B0BD0A49094D28462A4601F0A8F9C0
:10099000084928462A4601F079F901200202064951
:1009A000284601F081F82046B0BDC046B0030020C3
:1009B000BD090000C9090000FC03002001480160D6
:1009C0007047C046AC030020014801607047C04634
:1009D000A803002004490868044A1368181A01D0C3
:1009E00012680A607047C04618010020A803002062
:1009F00080B5024801F016FA80BDC046B003002061
:100A000080B5034801F096F900F004F880BDC046B7
:100A1000B0030020014801210160704780E200E03E
:100A200010B500280AD00A4B00241C60094B0CC0EA
:100A30008A680260C9684160002010BD06487D21B7
:100A4000FFF7E4FB024801210160002010BDC04611
:100A50000005002011111111E324000070B50028D9
:100A600017D0154C002323604568144EB54218D1A9
:100A70002360012904D0022916D1C568012D13D1A4
:100A80002360C90000680818001F114600F01AF81A
:100A900070BD0B48A221FFF7B9FB07480121016097
:100AA00070BD0748A32101E00548A521FFF7AEFB73
:100AB0000120206070BDC0460005002011111111F9
:100AC000E324000001607047B0B5002818D0164D2F
:100AD00000242C604268154B9A421AD100242C60E5
:100AE000012904D0022917D1C268012A14D1002299
:100AF0002A60C90000680818001F00F01BF8B0BD8C
:100B00000B48C021FFF782FB07480121016000204C
:100B1000B0BD0748C12101E00548C421FFF776FBBD
:100B2000012028602046B0BD0005002011111111E0
:100B3000E324000000687047B0B5002818D0164DB7
:100B400000242C604268154B9A421AD100242C6074
:100B5000012904D0022917D1C268012A14D1002228
:100B60002A60C900006808180838FFF7E3FFB0BD25
:100B70000B48DA21FFF74AFB0748012101600020FA
:100B8000B0BD0748DB2101E00548DD21FFF73EFB52
:100B9000012028602046B0BD000500201111111170
:100BA000E324000070B5002817D0E24C0023236036
:100BB0004568C84EB54218D12360012904D00229E6
:100BC00016D1C568012D13D12360C900006808182B
:100BD00008381146FFF776FF70BD0948F621FFF788
:100BE00015FBD4480121016070BD0548F72101E0E3
:100BF0000348F921FFF70AFB0120206070BDC046C1
:100C0000E324000010B5002814D0134C002121600B
:100C10004268124B9A4215D121608268012A14D190
:100C2000216047218900006840180121C90700F0B0
:100C300019F810BD0A485F21FFF7E8FA06480121BC
:100C4000016010BD0648602101E005486121FFF701
:100C5000DDFA0120206010BD0005002011111111E6
:100C60002E2500000160704710B5002812D0124CEC
:100C7000002121604268114B9A4213D121608268A1
:100C8000012A12D121604722920000688018FFF7E4
:100C9000E9FF10BD0A487A21FFF7B8FA064801219A
:100CA000016010BD06487B2101E005487C21FFF76B
:100CB000ADFA0120206010BD0005002011111111B6
:100CC0002E25000070B500281AD00C460546154E9A
:100CD000002030606968144A914219D13060A968D7
:100CE000012918D130602520C6002868801900F03D
:100CF0001FF80443286880192146FFF7B3FF70BD31
:100D00000A489821FFF782FA06480121016070BD68
:100D10000648992101E005489A21FFF777FA01205A
:100D2000306070BD00050020111111112E2500004A
:100D30000068704770B500281AD00D460446154E5D
:100D4000002030606168144A914219D13060A16876
:100D5000012918D130602520C60020688019FFF7CE
:100D6000E7FF0146A94320688019FFF77BFF70BDAC
:100D70000A48BC21FFF74AFA06480121016070BD0C
:100D80000648BD2101E00548BE21FFF73FFA0120DA
:100D9000306070BD00050020111111112E250000DA
:100DA00070B500281AD00C460546154E002030605C
:100DB0006968144A914219D13060A968012918D193
:100DC00030600920460128688019FFF7B1FF044010
:100DD000286880192146FFF745FF70BD0A48DF21CA
:100DE000FFF714FA06480121016070BD0648E021B2
:100DF00001E00548E121FFF709FA0120306070BDEC
:100E000000050020111111112E250000B0B5002899
:100E100015D0164D00242C604168154A914218D116
:100E200000242C60812149008268012A15D100220A
:100E30002A60006808182630FFF77AFFB0BD8120CD
:100E400041000C48FFF7E2F9084801210160002049
:100E5000B0BD81204000411C00E0891C0548FFF71F
:100E6000D5F9012028602046B0BDC046000500200D
:100E7000111111112E250000B0B5002814D0E34D3A
:100E800000242C604168E24A914218D100242C6071
:100E9000092149018268012A14D100222A600068D0
:100EA0004018FFF745FFB0BD09204001411E0A4828
:100EB000FFF7ACF9D548012101600020B0BD092041
:100EC000410100E0491C0448FFF7A0F90120286017
:100ED0002046B0BD111111112E2500000021054A38
:100EE000535A834204D010313029F9D10020704781
:100EF0005018704704000020B0B500280ED00446FA
:100F0000C248002505600846FFF7E8FF00280ED01C
:100F1000014642682046FFF783FDB0BD06488F2199
:100F2000FFF774F9B948012101600020B0BD656088
:100F30000220B0BD000500207E250000F0B581B084
:100F4000002809D00546454800240460286A444B1F
:100F500098420AD105247DE04448AD21FFF756F9B7
:100F60003E4801210160002474E02B462C332846C2
:100F700058303C4EAC63EC632C646C64AC64EE643F
:100F80002C62AA618E686E62CE68AE620E7C1E70A4
:100F90008F7C9F704F7C002F00D108275F704B69BA
:100FA0006B650B7E03702C606C60AC60EC602C6138
:100FB0006C61E043B040C043286368632A48E8613D
:100FC000487E012843D16032104600F061F8662166
:100FD0000143A869603000F05DF8A86968309F217E
:100FE00000F058F8A86968300026314600F052F841
:100FF000A8696830314600F04DF8A869603000F00B
:1010000047F8014601200602B143A869603000F0AC
:1010100041F8A869603000F03BF80643A8696030E9
:10102000314600F037F8A869643000F031F8C007A5
:1010300003D1A8696C3000F02BF8A869643000F087
:1010400027F8C00703D1A8696C3000F021F82846C2
:1010500000F022F8204601B0F0BDC0460005002097
:10106000222222227110000011111111CF2500003F
:1010700080B504480449FFF7C9F80448012101601C
:1010800080BDC046CF2500001B04000000050020E5
:10109000006870470160704770B5002814D004469E
:1010A000124D00262E60C0691149884215D12E606C
:1010B000204600F0B1F82662206B6063A0694030E2
:1010C0000A21FFF7E7FF70BDFF21B8310948FFF79C
:1010D0009DF806480121016070BDFF20B830411C19
:1010E0000448FFF793F80120286070BD0005002038
:1010F00011111111CF250000F0B581B000280FD0DB
:101100000546204E00243460C0691F49884211D131
:1011100000243460286A1E4FB84214D105242DE003
:10112000FF213A311948FFF771F816480121016093
:10113000002423E0FF203A30411C1448FFF766F8F2
:10114000012030601AE0AE6928363046FFF7A0FF74
:10115000104901433046FFF79DFF2F62A8696030B8
:10116000FFF796FF62210143A8696030FFF792FF05
:10117000A8690121C9071C30FFF78CFF204601B088
:10118000F0BDC0460005002011111111CF2500004F
:10119000222222222B20000070B500280ED0054606
:1011A0001A4E00243460C0691949884210D10024C5
:1011B0003460A86C002815D0152070BDFF2188313F
:1011C0001448FFF723F8114801210160002070BD89
:1011D000FF208830411C0F48FFF718F801203060CD
:1011E000204670BDA8691C302146FFF753FFA8694F
:1011F0006030FFF74DFF014602208143A86960304F
:10120000FFF748FF2C62204670BDC0460005002055
:1012100011111111CF25000010B50446016B806932
:101220007030FFF737FFA0696030FFF731FF0146EC
:1012300001200002626A002A00D06030054A114095
:101240000143A0696030FFF725FF0020206460643F
:10125000A06410BDFFFE0000F0B585B0002819D0D5
:10126000AC4F00263E6000291DD01D463E60002B7D
:1012700021D004463E60C069A74B984223D100208C
:101280003860206AA74B984225D1A06C002826D050
:10129000152621E0A248A149FEF7B8FF9D4801218B
:1012A0000160002618E09D48411C9D48FEF7AEFFF6
:1012B0000120386010E09948811C9948FEF7A6FF8C
:1012C0000120386008E09548C11C9548FEF79EFF54
:1012D0000120386000E00626304605B0F0BD0391DD
:1012E0000492A0691C30FFF7D3FE0646A0691C30AB
:1012F00000273946FFF7CEFEA0696030FFF7C8FE31
:10130000052202400123D907042A0CD1206B626B0D
:10131000824208D13046854E8842DDD1A0691C301A
:10132000FFF7B8FED8E7019602910398A0630498EE
:10133000E063256465640393A3642D20205C04901E
:10134000A0696430FFF7A4FE000726D40498C608FD
:10135000002712E0A06B0768A06968303946FFF7E4
:1013600099FEA06B8019A063606C801B6064A0690B
:101370006430FFF78DFE00070FD4606C00280CD09E
:1013800004982028E6D0102804D00828E4D1A06BC7
:101390000778E1E7A06B0788DEE7616BA069703032
:1013A000FFF778FEA0696030FFF772FE01465E48E5
:1013B0000140A0696030FFF76DFE029E0198B042C7
:1013C00010D1A56928352846FFF762FE04210143A4
:1013D0002846FFF75FFEA0691C303146FFF75AFE32
:1013E000002679E70498C6080398000202900CE0F2
:1013F000A0696030FFF74CFE01464B480140A069F0
:101400006030FFF747FE002D72D00397A0692030AF
:10141000FFF73EFE4007F9D5A76920373846FFF7AA
:1014200037FE042101433846FFF734FEA0696030DF
:10143000FFF72EFE014602980143A0696030FFF7D6
:1014400029FEA0696430FFF723FEC0070FD0039F79
:10145000606C002836D1D6E7E063206980192061EE
:10146000AD1BA0696430FFF713FEC007F0D1A0697F
:101470006C30FFF70DFE07460498202810D0102886
:1014800008D00828E9D1E06B0028E6D0411CE163D0
:101490000770E2E7E06B0028DFD00780801CDBE705
:1014A000E06B0028D9D080C0D6E7A06B0768A069A0
:1014B00068303946FFF7EEFDA06B8019A063606CC1
:1014C000801B6064A0696430FFF7E2FD00078FD4E1
:1014D000606C00288CD004982028E6D0102804D016
:1014E0000828E4D1A06B0778E1E7A06B0788DEE766
:1014F000A0696030FFF7CCFD02990143A06960301C
:10150000FFF7C8FD216BA0697030FFF7C3FD00260F
:10151000A664E1E600050020111111112A02000065
:10152000CF25000022222222FFFEFFFF83040000BD
:10153000B0B500280DD01D4D00242C60C2691C4B95
:101540009A4210D100222A60836C002B15D01520FE
:10155000B0BD0720C1011748FEF758FE134801210E
:1015600001600020B0BD0720C001411C1148FEF7FA
:101570004DFE012028602046B0BD2C23C35C002B0B
:101580000FD05B1C02E05B1E012B06DD9C1E0D468E
:10159000E540EC07F7D0521CF5E7012A01D90648CF
:1015A000B0BDC94341630020B0BDC0460005002066
:1015B00011111111CF25000084040000B0B50028DE
:1015C0000BD00F4D00242C60C1690E4A91420DD101
:1015D00000212960406BC043B0BD0C480A49FEF7AA
:1015E00015FE0748012101600020B0BD0648411CDE
:1015F0000648FEF70BFE012028602046B0BDC0461D
:101600000005002011111111BF030000CF250000BB
:1016100070B500280DD0104C00232360002A10D094
:101620002360C5690D4EB5420ED1C26401652360C9
:1016300070BD0C480A49FEF7E9FD07480121016029
:1016400070BD0748411C01E00548811C0548FEF7B4
:10165000DDFD0120206070BD000500201111111179
:10166000FD030000CF250000F0B583B000285CD05A
:101670000446EE48002707606069401C6061A0696D
:101680002030FFF705FD0546A66920363046FFF7F6
:10169000FFFC014629433046FFF7FCFCE8074DD12B
:1016A0000120000202907F4E4420054200D18CE0D0
:1016B00001952D20265CA0696030FFF7E9FC0090C1
:1016C000014602980143A0696030FFF7E3FCA0697E
:1016D0006430FFF7DDFCC00742D1F5080EE0E06B97
:1016E000002802D00780801CE06320694019206137
:1016F000A0696430FFF7CCFCC00731D1A0696C3021
:10170000FFF7C6FC0746202E0AD0102EE7D0082E81
:10171000EBD1E06B0028E8D0411CE1630770E4E7FF
:10172000E06B0028E1D080C0DEE75F485D49FEF74E
:101730006DFDBE480121016003B0F0BD2068401C72
:101740002060256C666C2046FFF766FDA06964305A
:10175000FFF79EFCAA1BE36C206D5249253182E005
:10176000A069616C002900D180E06430FFF790FC33
:10177000000723D4F50812E0A06B0768A069683061
:101780003946FFF787FCA06B4019A063606C401BD3
:101790006064A0696430FFF77BFC00070ED4606CC6
:1017A00000280BD0202EE7D0102E04D0082EE5D133
:1017B000A06B0778E2E7A06B0788DFE7A0696030DD
:1017C0000099FFF767FC019D364E280605D5E36CAE
:1017D000206D31462E31002298470298054209D1EA
:1017E000A8070FD4A8061AD4280725D4A80430D4F3
:1017F00003B0F0BDE36C206D31462F3100229847D5
:10180000A807EFD5E068401CE060206C616C421ACC
:10181000E36C206D31462D319847A806E4D5A068C9
:10182000401CA060206C616C421AE36C206D314654
:10183000283198472807D9D56068401C6060206C23
:10184000616C421AE36C206D314627319847A80439
:10185000CED56068401C6060206C616C421AE36CFD
:10186000206D30363146984703B0F0BD216B7030A3
:10187000FFF710FCA76928373846FFF709FC014637
:10188000042081433846FFF705FC0020A064E36C88
:10189000206D226C034E314626319847019D280663
:1018A00095D49AE75A040000CF2500000021054A8C
:1018B000535A834204D01C317029F9D1002070475B
:1018C000501870473400002010B500280ED0044690
:1018D000EC48002202600846FFF7E8FF00280ED01F
:1018E000014642682046FFF729FB10BD05488A21C2
:1018F000FEF78CFCF74801210160002010BD02209A
:1019000010BDC0461826000010B5002818D00446A7
:101910000021104801601048104B6364E363E261EA
:1019200020626162A162E16221636163A1630C32A2
:10193000104600F025F8204600F01CFB002010BDEA
:1019400007488F21FEF762FC024801210160002058
:1019500010BDC046000500201111111165190000CD
:101960006726000080B5FF21C0310348FEF74EFC1A
:1019700002480121016080BD6726000000050020AB
:1019800001607047F0B581B000282BD016460F4695
:10199000264A0024146000292DD005461460006AF0
:1019A000234988422FD100241460002E33D4002410
:1019B0001460E869083000F03FF80090E8690C30E6
:1019C0002146FFF7DDFF6F62AE62EE6210210098E4
:1019D0000140E8690C30FFF7D3FF284600F02EF8ED
:1019E00004461FE01348DE21FEF710FC0F480121DA
:1019F0000160002416E00F48DF211546FEF706FCC3
:101A0000012028600EE00B48E0211546FEF7FEFBA2
:101A10000120286006E00748E1211546FEF7F6FBA5
:101A200001202860204601B0F0BDC046000500201E
:101A300011111111672600000068704770B5044647
:101A4000C0690830FFF7F8FFE0690830FFF7F4FFDE
:101A50000546E0690C3000263146FFF791FF280764
:101A600010D40026E06A86420CD2606A815DE0698B
:101A7000001DFFF785FFE069761C0830FFF7DCFFEB
:101A80000007EFD5606A80196062E06A801BE0623F
:101A9000A0688019A06010200540E0690C3029463C
:101AA000FFF76EFF304670BDF0B581B000282BD037
:101AB00016460F46294A0024146000292ED00546F8
:101AC0001460006A2649884232D100241460002E36
:101AD00038D400241460E8690830FFF7ADFF0090A7
:101AE000E8690C302146FFF74BFF2F636E63AE634E
:101AF000102100980140E8690C30FFF741FF2846AB
:101B000000F032F8044626E0FF2132311548FEF796
:101B10007DFB12480121016000241CE0FF203230CF
:101B2000411C10481546FEF771FB0120286012E0A9
:101B3000FF203230811C0B481546FEF767FB012061
:101B4000286008E0FF203230C11C06481546FEF729
:101B50005DFB01202860204601B0F0BD000500209B
:101B60001111111167260000F0B581B00446C0695B
:101B70000830FFF761FF0546E0690C30002631466A
:101B8000FFF7FEFEA06B002821D0002602E0A06B2C
:101B900086421CD2E0690830FFF74EFF0746C007B7
:101BA00015D0E069FFF748FF216B8855B80602D5CC
:101BB0002069401C2061380602D56069401C6061C4
:101BC000761C7806E3D5A069401CA061DFE7206B96
:101BD00080192063A06B801BA063E0688019E0601F
:101BE00010200540E0690C302946FFF7C9FE304659
:101BF00001B0F0BDB0B5002814D00446124D00204D
:101C00002860216A114A914215D12860E0690830A4
:101C1000FFF712FF10210140C91CE0690C30FFF7EB
:101C2000AFFEB0BDB72041000948FEF7EFFA064805
:101C300001210160B0BDB7204000411C0448FEF7FF
:101C4000E5FA01202860B0BD000500201111111136
:101C50006726000080B500280AD0D74900220A6014
:101C6000C0690830FFF7E8FE81080120884380BD85
:101C7000FF219A310448FEF7C9FACF4801210160DB
:101C8000002080BD000500206726000070B50028F8
:101C90000DD0104C00232360002910D02360056A6A
:101CA0000D4EB5420ED1C1630264236070BD0B4876
:101CB0006821FEF7ABFA07480121016070BD0748B3
:101CC000692101E005486A21FEF7A0FA01202060A1
:101CD00070BDC0460005002011111111BA26000088
:101CE00070B500280DD0104C00232360002910D0BF
:101CF0002360056A0D4EB5420ED1416482642360B3
:101D000070BD0B488921FEF781FA07480121016067
:101D100070BD07488A2101E005488B21FEF776FA5D
:101D20000120206070BDC046000500201111111176
:101D3000BA260000B0B5002816D004460E4800218F
:101D40000160E069083000F01BF80546800702D00A
:101D5000204600F017F8680705D5A06A002802D0D1
:101D6000204600F022F8B0BD0448A621FEF74EFA46
:101D7000014801210160B0BD00050020BA26000025
:101D80000068704710B50446806B002802D02046DA
:101D9000FFF7EAFEA06B002803D1616BE26B206CB9
:101DA00090476068401C606010BD10B50446C06A72
:101DB000002803D02046FFF741FE05E0A16A00207D
:101DC000A062626CA06C90472068401C206010BD2F
:101DD00010B500280CD00F4C00212160026A0E4B78
:101DE0009A420ED12160C0690C3000F019F810BD84
:101DF000FF2126310948FEF709FA06480121016052
:101E000010BDFF202630411C0448FEF7FFF90120D9
:101E1000206010BD0005002011111111BA2600002C
:101E20000160704710B500280DD0634C002121607F
:101E3000026A624B9A420FD12160C0690C301021B6
:101E4000FFF7EEFF10BDFF2144310848FEF7DEF931
:101E500059480121016010BDFF204430411C034856
:101E6000FEF7D4F90120206010BDC046BA2600005C
:101E700070B50C46054606460836304600F007F8B1
:101E80000007FAD4281D214600F003F870BD006851
:101E9000704701607047B0B50446054608352846CE
:101EA000FFF7F5FFC007FAD02046FFF7F0FFC0B2FA
:101EB000B0BD00000146034802888A4200D00020DD
:101EC0007047C046A400002010B500280ED004467C
:101ED0003948002202600846FFF7ECFF00280ED0C8
:101EE000014642682046FFF70FFD10BD05488521D9
:101EF000FEF78CF9304801210160002010BD02205E
:101F000010BDC04612270000B0B5002819D0164CED
:101F10000022226000291CD02260036A134DAB42CC
:101F20001AD1226042684A6082688A60C268CA60C8
:101F300002690A6182698A6142694A6100680860CF
:101F4000B0BD0B486021FEF761F90748012101602F
:101F5000B0BD0748612101E005486221FEF756F94E
:101F600001202060B0BDC0460005002011111111F4
:101F70006B27000010B500280FD00F4C0021216006
:101F8000026A0E4B9A4210D121600160416081606B
:101F9000C16001614161816110BD09488321FEF783
:101FA00035F905480121016010BD05488421FEF77F
:101FB0002DF90120206010BD000500201111111124
:101FC0006B2700000FB41CB5074B06AA7B4469467B
:101FD0000090059800F04DF90020694600F05CF98A
:101FE0001CBC08BC04B01847C9020000F8B50E4676
:101FF0000446002020622046E1688847002829D056
:10200000252802D06268A16820E0E1682046002708
:10201000884705001ED028464138192802D80127D4
:10202000FF0220353246204627602946FEF786F813
:10203000002808D0012804D0F61DF608F60008365E
:10204000D9E7361DD7E762682846A1689047206A1D
:10205000401CCFE7206AF8BD70B50C460546012A42
:1020600005D02878800600D5EA69002302E0012324
:1020700005E05B1C934202D2E05C0028F9D1A8691C
:10208000E618C01AA861286AC01828622846C04607
:10209000C04604E06A682078A968641C9047B4428E
:1020A000F8D32846C046C04670BD0000F7B50025ED
:1020B00075291068009914A611D0C046C0460028A2
:1020C00002DA404211A608E0009909688A0701D5A2
:1020D0000FA602E0490704D50EA6012501E0C0467F
:1020E000C046009F0024243704E000F0F1F83031AE
:1020F0003955641C0028F8D12B46324621460098F9
:1021000000F059F8FEBD0000000000002D000000A6
:102110002B0000002000000070B504460D4621464B
:102120001068C046C0462188090502D50F4A7A4486
:1021300002E00E4A7A440E3223460021243305E0A1
:1021400006070009360F965D5E54491C0028F7D13A
:1021500020780023000705D5702D03D0002901D079
:1021600002231132204600F026F870BD2C02000038
:1021700001E004C0091F0429FBD28B0701D50280AE
:10218000801CC90700D00270704700290BD0C3071C
:1021900002D00270401C491E022904D3830702D5D5
:1021A0000280801C891EE3E70022EEE70022DFE7C1
:1021B000704770477047FFB504460D4681B0243024
:1021C00000902168880604D51022E06991432160BF
:1021D00000E00120A84201DD471B00E00027049831
:1021E000A1697A191018081AA0612078C00602D4D3
:1021F0002046C046C046002608E003986268A168F1
:10220000805D9047206A401C761C206204988642BC
:10221000F3DB2078C0060AD52046C046C04606E05B
:102220006268A16830209047206A401C20623846CE
:102230007F1E0028F4DC07E000986268A168405D1A
:102240009047206A401C206228466D1E0028F3DC5F
:102250002046C046C0462078000602D5022005B0C0
:10226000F0BD0120FBE7000001694A1C026108780B
:10227000704700B58FB00291002105910549019387
:1022800079440391114604906846FFF7AFFE0FB002
:1022900000BD0000E5FFFFFF0A681070521C0A60D5
:1022A000704710B54369002B02D0C046C04601E01C
:1022B000FFF7D2FE012010BD1278014624310A70CA
:1022C00000224A700122ECE711680022D243E8E7BD
:1022D00001468008081A02091018020A1018020C98
:1022E0001018C008820012185200891A01E0401C20
:1022F0000A390A29FBD2704700487047B80000200D
:102300007546FFF7F9FFAE46050069465346C0081B
:10231000C000854618B020B5FDF740FF60BCB6464A
:1023200000260027C0C5C0C5C0C5C0C5C0C5C0C542
:10233000C0C5C0C5403D490849008D46704710B52D
:102340000446C046C0462046FDF717FF10BD0000FA
:1023500001491820ABBEFEE726000200704730316D
:1023600032333435363738394142434445464030BC
:10237000580030313233343536373839616263646E
:10238000656640307800000067452301EFCDAB89DA
:10239000EFBEADDEEDDAEBFEA53CF0A5214365878F
:1023A000A90BDCFE0804020141726D202573205246
:1023B00065766973696F6E2025692056617269615F
:1023C0006E742025690D0A0A002A2A2A2A2A2A2A36
:1023D0002A2A2A2A2A2A2A2A2A2A2A2A2A2A2A2A5D
:1023E0002A2A2A2A2A2A2A2A2A2A2A2A2A0D0A00B4
:1023F0004552524F52202D2042617365205350495F
:1024000020726561646261636B20636F72727570C4
:102410007465642E0D0A004552524F52202D204201
:1024200072616D20726561646261636B20636F72BB
:102430007275707465642E0D0A00557365204449E9
:102440005020737769746368657320616E642070CF
:1024500075736820627574746F6E7320746F0D0AE3
:10246000636F6E74726F6C204C4544530D0A000A02
:102470005632432D4441504C696E6B20626F61723D
:10248000642064657465637465640D0A000A5632DD
:10249000432D4441504C696E6B20626F6172642021
:1024A0006E6F742064657465637465640D0A004220
:1024B0006173652053504920726561646261636B8A
:1024C00020636F72726563740D0A004272616D2041
:1024D000726561646261636B20636F7272656374BD
:1024E0000D0A002E2E2F73646B5F776F726B737003
:1024F0006163652F7374616E64616C6F6E655F629A
:1025000073705F302F436F727465785F4D315F3049
:102510002F6C69627372632F6770696F5F76345FC7
:10252000332F7372632F786770696F2E63002E2EBE
:102530002F73646B5F776F726B73706163652F735A
:1025400074616E64616C6F6E655F6273705F302F73
:10255000436F727465785F4D315F302F6C696273C1
:1025600072632F6770696F5F76345F332F737263A6
:102570002F786770696F5F696E74722E63002E2EFC
:102580002F73646B5F776F726B73706163652F730A
:1025900074616E64616C6F6E655F6273705F302F23
:1025A000436F727465785F4D315F302F6C69627371
:1025B00072632F6770696F5F76345F332F73726356
:1025C0002F786770696F5F73696E69742E63002E70
:1025D0002E2F73646B5F776F726B73706163652FFF
:1025E0007374616E64616C6F6E655F6273705F308F
:1025F0002F436F727465785F4D315F302F6C696265
:102600007372632F7370695F76345F342F737263F4
:102610002F787370692E63002E2E2F73646B5F7793
:102620006F726B73706163652F7374616E64616C3C
:102630006F6E655F6273705F302F436F7274657881
:102640005F4D315F302F6C69627372632F737069F5
:102650005F76345F342F7372632F787370695F73A2
:10266000696E69742E63002E2E2F73646B5F776F13
:10267000726B73706163652F7374616E64616C6FEC
:102680006E655F6273705F302F436F727465785F41
:102690004D315F302F6C69627372632F7561727494
:1026A0006C6974655F76335F322F7372632F787550
:1026B0006172746C6974652E63002E2E2F73646BC7
:1026C0005F776F726B73706163652F7374616E6493
:1026D000616C6F6E655F6273705F302F436F7274F1
:1026E00065785F4D315F302F6C69627372632F754F
:1026F0006172746C6974655F76335F322F737263D5
:102700002F78756172746C6974655F696E74722E6E
:1027100063002E2E2F73646B5F776F726B73706123
:1027200063652F7374616E64616C6F6E655F627355
:10273000705F302F436F727465785F4D315F302F5B
:102740006C69627372632F756172746C6974655F12
:1027500076335F322F7372632F78756172746C6990
:1027600074655F73696E69742E63002E2E2F736417
:102770006B5F776F726B73706163652F7374616EDB
:1027800064616C6F6E655F6273705F302F436F7250
:102790007465785F4D315F302F6C69627372632F9F
:1027A000756172746C6974655F76335F322F737212
:1027B000632F78756172746C6974655F737461748A
:1027C000732E6300E827000000000020B80000001E
:1027D00004010000A0280000B800002050140000F0
:1027E000200100000000000080F0FA02000000005C
:1027F0000000114001000000010000000100000085
:102800000000124001000000010000000200000072
:102810000000014000000000000000000000000077
:102820000000134001000000000000000108020049
:102830000000000000010000010000000000024054
:10284000010000000000000001080200000000007C
:102850000000000002000000000003400100000032
:10286000000000000108000000000000000000005F
:102870000300000000000040010000000000000014
:10288000010802010000000001000000000000003B
:102890000000104000C2010000000800010000001C
:04000005000001896D
:00000001FF
